:020000040000FA
:100000000C945D000C9485000C9485000C94850084
:100010000C9485000C9485000C9485000C9485004C
:100020000C9485000C9485000C9485000C9485003C
:100030000C9485000C9485000C9485000C9485002C
:100040000C9462030C9485000C94D2030C94AC03C2
:100050000C9485000C9485000C9485000C9485000C
:100060000C9485000C94850000000008000201003B
:100070000003040700000000000000000000000072
:10008000250028002B0000000000240027002A0083
:10009000040404040404040402020202020203032E
:1000A0000303030301020408102040800102040836
:1000B0001020010204081020F40411241FBECFEF09
:1000C000D8E0DEBFCDBF22E0A8EAB1E001C01D92BA
:1000D000AF34B207E1F711E0A0E0B1E0EAECFAE0FA
:1000E00002C005900D92A83AB107D9F710E0CDE50E
:1000F000D0E004C02197FE010E945D05CC35D107F8
:10010000C9F70E9404040C9463050C940000FC01E0
:1001100080818EBD91810DB407FEFDCF8EB59EBD51
:1001200080830DB407FEFDCF8EB58183089590E0E6
:10013000FC01EC55FF4F249180579F4FFC018491A7
:10014000882399F090E0880F991FFC01EA57FF4F30
:10015000A591B491FC01E458FF4F859194918FB71C
:10016000F894EC91E22BEC938FBF0895AF92BF927D
:10017000CF92DF92EF92FF920F931F93CF93DF9373
:100180006C017B018B01040F151FEB015E01AE18A2
:10019000BF08C017D10759F06991D601ED91FC91C4
:1001A0000190F081E02DC6010995892B79F7C501F1
:1001B000DF91CF911F910F91FF90EF90DF90CF9043
:1001C000BF90AF900895FC01538D448D252F30E0F2
:1001D000842F90E0821B930B541710F0CF96089554
:1001E00001970895FC01918D828D981761F0A28D81
:1001F000AE0FBF2FB11D5D968C91928D9F5F9F7347
:10020000928F90E008958FEF9FEF0895FC01918DFC
:10021000828D981731F0828DE80FF11D858D90E069
:1002200008958FEF9FEF08952FB7F8948091AE0156
:100230009091AF01A091B001B091B1012FBF809317
:10024000BA019093BB01A093BC01B093BD0182EBB6
:1002500091E00E94060197FF26C02FB7F894809185
:10026000AE019091AF01A091B001B091B1012FBF4B
:100270004091BA015091BB016091BC017091BD01E8
:10028000841B950BA60BB70B4091B6015091B7019B
:100290006091B8017091B90184179507A607B70757
:1002A000B0F28FEF9FEF0895CF92DF92EF92FF921F
:1002B000CF930E941401FC0197FD4EC08D32910531
:1002C00021F0C0970A9708F040C0C12CD12C7601CC
:1002D000C0E0E130F105D1F0ED32F105D9F1CF0107
:1002E000C0970A9798F4AAE0B0E0A70196010E948F
:1002F00021056F01FF0FEE08FF08C60ED71EE81E8E
:10030000F91E80E3C81AD108E108F10882EB91E0F8
:100310000E94F2000E941401FC01C0970A97C8F2E3
:10032000E130F105B1F2CC2341F0F094E094D094A7
:10033000C094C11CD11CE11CF11CC701B601CF91B6
:10034000FF90EF90DF90CF90089582EB91E00E94B4
:10035000F200AFCFC1E0DACFC12CD12C7601EDCFC6
:10036000FC01918D228D892F90E0805C9F4F821B34
:1003700091098F739927089582EB91E00E94B00153
:1003800021E0892B09F420E0822F089580E090E09D
:10039000892B29F00E94BC0181110C940000089562
:1003A000FC01A48DA80FB92FB11DA35ABF4F2C91EA
:1003B000848D90E001968F739927848FA689B789E1
:1003C0002C93A089B1898C91837080648C93938DD8
:1003D000848D981306C00288F389E02D80818F7D7B
:1003E00080830895EF92FF920F931F93CF93DF9333
:1003F000EC0181E0888F9B8D8C8D98131AC0E88961
:10040000F989808185FF15C09FB7F894EE89FF892F
:100410006083E889F98980818370806480839FBFCD
:1004200081E090E0DF91CF911F910F91FF90EF90CD
:100430000895F62E0B8D10E00F5F1F4F0F731127DD
:10044000E02E8C8D8E110CC00FB607FCFACFE88918
:10045000F989808185FFF5CFCE010E94D001F1CFCF
:10046000EB8DEC0FFD2FF11DE35AFF4FF0829FB78C
:10047000F8940B8FEA89FB8980818062CFCFCF937C
:10048000DF93EC01888D8823B9F0AA89BB89E889BC
:10049000F9898C9185FD03C0808186FD0DC00FB662
:1004A00007FCF7CF8C9185FFF2CF808185FFEDCFE0
:1004B000CE010E94D001E9CFDF91CF91089590E065
:1004C000FC01E859FF4F2491FC01EC55FF4F34919A
:1004D000FC01E057FF4FE491EE23C9F0222339F0ED
:1004E000233001F1A8F4213019F1223029F1F0E094
:1004F000EE0FFF1FE458FF4FA591B4918FB7F8940A
:10050000EC91611126C030953E233C938FBF089536
:100510002730A9F02830C9F0243049F780918000B5
:100520008F7D03C0809180008F7780938000DFCF24
:1005300084B58F7784BDDBCF84B58F7DFBCF809171
:10054000B0008F778093B000D2CF8091B0008F7DC4
:10055000F9CF3E2BDACF1F93CF93DF9300D0CDB7E7
:10056000DEB7182F8CE089831A8260E0812F0E9409
:100570005F02CE0101960E94870061E0812F0E94F8
:100580005F028A810F900F90DF91CF911F910895A4
:100590001F93CF93DF9300D0CDB7DEB7182F1A8209
:1005A00019826A8360E00E945F02CE0101960E9478
:1005B000870061E0812F0E945F020F900F90DF9112
:1005C000CF911F910895FC0101900020E9F7319728
:1005D000AF01481B590BBC0182EB91E00C94B600B3
:1005E0008F929F92AF92BF920F931F93CF93DF93FF
:1005F000CDB7DEB7A1970FB6F894DEBF0FBECDBF63
:1006000019A2423008F44AE08E010F5D1F4F842E7C
:10061000912CB12CA12CA50194010E943B05E62F41
:10062000B901CA01EA30F4F4E05DD801EE938D011E
:10063000232B242B252B79F790E080E0109719F0DD
:10064000CD010E94E302A1960FB6F894DEBF0FBE63
:10065000CDBFDF91CF911F910F91BF90AF909F9031
:100660008F900895E95CE1CFCF93DF930E94E3027E
:10067000EC0182E191E00E94E3028C0F9D1FDF916B
:10068000CF91089585E191E00E94E30282E10E940A
:10069000AB02682F70E090E080E04AE00E94F00238
:1006A0008EE191E00E94E30283E10E94AB02682F99
:1006B00070E090E080E04AE00E94F00282E191E088
:1006C0000C94E3021F920F920FB60F9211242F93F6
:1006D0003F938F939F93AF93BF938091AE0190917F
:1006E000AF01A091B001B091B1013091AD0123E013
:1006F000230F2D3758F50196A11DB11D2093AD0193
:100700008093AE019093AF01A093B001B093B1017B
:100710008091A9019091AA01A091AB01B091AC0187
:100720000196A11DB11D8093A9019093AA01A093E8
:10073000AB01B093AC01BF91AF919F918F913F916D
:100740002F910F900FBE0F901F90189526E8230F42
:100750000296A11DB11DD2CF1F920F920FB60F921C
:1007600011242F933F934F935F936F937F938F93B6
:100770009F93AF93BF93EF93FF9382EB91E00E941F
:10078000D001FF91EF91BF91AF919F918F917F9198
:100790006F915F914F913F912F910F900FBE0F90EE
:1007A0001F9018951F920F920FB60F9211242F933E
:1007B0008F939F93EF93FF93E091C201F091C30158
:1007C0008081E091C801F091C90182FD1BC0908138
:1007D0008091CB018F5F8F732091CC01821741F004
:1007E000E091CB01F0E0EE54FE4F958F8093CB016A
:1007F000FF91EF919F918F912F910F900FBE0F90CE
:100800001F9018958081F4CF789484B5826084BD60
:1008100084B5816084BD85B5826085BD85B5816004
:1008200085BD80916E00816080936E001092810082
:10083000809181008260809381008091810081603D
:1008400080938100809180008160809380008091FE
:10085000B10084608093B1008091B000816080938A
:10086000B00080917A00846080937A0080917A0051
:10087000826080937A0080917A00816080937A0010
:1008800080917A00806880937A001092C100E09194
:10089000C201F091C30182E08083E091BE01F0913A
:1008A000BF011082E091C001F091C10180E180831D
:1008B0001092CA01E091C601F091C70186E08083E1
:1008C000E091C401F091C501808180618083E09155
:1008D000C401F091C501808188608083E091C401EA
:1008E000F091C501808180688083E091C401F0911E
:1008F000C50180818F7D808382E10E94970083E122
:100900000E94970061E082E10E945F0261E083E162
:100910000E945F02CFB7F8948091A801811124C092
:10092000EAE9F0E08491EEEAF0E09491E82FF0E05B
:10093000EE0FFF1FEA57FF4FA591B491EC91E92309
:1009400021F461E08AE00E945F028AE00E94970041
:100950008CB580618CBD8CB580648CBD8DE00E94AF
:1009600097008BE00E9497008091A8018F5F809391
:10097000A801CFBF83E58CBD1DBC86E291E00E943B
:10098000340382EB91E00E94B001892BB1F382EB3A
:1009900091E00E94F2008336910589F08636910538
:1009A00081F78DE891E00E94E3020E9454016F3FBD
:1009B00071058105910509F0A0F483E10DC082E67F
:1009C00091E00E94E3020E9454016F3F710581058E
:1009D000910509F030F482E10E94C8020E944203AE
:1009E000D0CF8FE791E0CBCFE2EBF1E01382128220
:1009F00088EE93E0A0E0B0E084839583A683B7837C
:100A000084E091E09183808385EC90E095878487F2
:100A100084EC90E09787868780EC90E0918B808BC8
:100A200081EC90E0938B828B82EC90E0958B848BB1
:100A300086EC90E0978B868B118E128E138E148E1F
:100A400008950E942C05A59F900DB49F900DA49F22
:100A5000800D911D11240895A29FB001B39FC00184
:100A6000A39F700D811D1124911DB29F700D811DDA
:100A70001124911D0895A1E21A2EAA1BBB1BFD0192
:100A80000DC0AA1FBB1FEE1FFF1FA217B307E4076D
:100A9000F50720F0A21BB30BE40BF50B661F771FC5
:100AA000881F991F1A9469F76095709580959095A5
:100AB0009B01AC01BD01CF010895EE0FFF1F059012
:100AC000F491E02D0994F894FFCF00000000F201AA
:100AD000B600E3003F02B001F20006010D0A004338
:100AE0006F617273653A20002046696E653A200096
:100AF000547970652027632720746F206368616EC6
:100B0000676520636F617273652076616C7565201F
:100B10006F722027662720746F206368616E676597
:100B20002066696E652076616C756500456E74653A
:100B3000722076616C756520666F7220636F6172DA
:100B4000736520706F743A2000496E76616C696439
:100B500020656E74727900456E7465722076616CE2
:100B6000756520666F722066696E6520706F743AD5
:020B7000200063
:107800000C94343C0C94513C0C94513C0C94513CE1
:107810000C94513C0C94513C0C94513C0C94513CB4
:107820000C94513C0C94513C0C94513C0C94513CA4
:107830000C94513C0C94513C0C94513C0C94513C94
:107840000C94513C0C94513C0C94513C0C94513C84
:107850000C94513C0C94513C0C94513C0C94513C74
:107860000C94513C0C94513C11241FBECFEFD8E036
:10787000DEBFCDBF11E0A0E0B1E0ECE9FFE702C060
:1078800005900D92A230B107D9F712E0A2E0B1E065
:1078900001C01D92AD30B107E1F70E942D3D0C945F
:1078A000CC3F0C94003C982F959595959595959582
:1078B000905D8F708A307CF0282F295A8091C0000B
:1078C00085FFFCCF9093C6008091C00085FFFCCF60
:1078D0002093C6000895282F205DF0CF982F809127
:1078E000C00085FFFCCF9093C6000895EF92FF92F1
:1078F0000F931F93EE24FF2487018091C00087FD22
:1079000017C00894E11CF11C011D111D81E4E8164B
:1079100082E4F8068FE0080780E0180770F3E09132
:107920000401F091050109958091C00087FFE9CF1E
:107930008091C6001F910F91FF90EF9008950E94D3
:10794000763C982F8091C00085FFFCCF9093C600B5
:1079500091362CF490330CF09053892F089597555D
:10796000892F08951F930E949F3C182F0E949F3CCF
:107970001295107F810F1F9108951F93182F882350
:1079800021F00E94763C1150E1F71F9108951F935A
:10799000182F0E94763C803249F0809103018F5F5E
:1079A000809303018530C1F01F9108958091C0003C
:1079B00085FFFCCF84E18093C6008091C00085FFE5
:1079C000FCCF1093C6008091C00085FFFCCF80E102
:1079D0008093C6001F910895E0910401F091050184
:1079E00009951F9108950E94763C803241F0809164
:1079F00003018F5F80930301853081F008958091AA
:107A0000C00085FFFCCF84E18093C6008091C00058
:107A100085FFFCCF80E18093C6000895E0910401CA
:107A2000F09105010995089540E951E08823A1F0FE
:107A30002D9A28EE33E0FA013197F1F721503040CA
:107A4000D1F72D9828EE33E0FA013197F1F7215064
:107A50003040D1F7815061F708953F924F925F9285
:107A60006F927F928F929F92AF92BF92CF92DF924E
:107A7000EF92FF920F931F93CF93DF93000080E16B
:107A80008093C4001092C50088E18093C10086E015
:107A90008093C2005098589A259A81E00E94143D24
:107AA00024E1F22E9EE1E92E85E9D82E0FE0C02ECA
:107AB00010E1B12EAA24A394B1E49B2EA6E58A2E50
:107AC000F2E57F2EE0E26E2E79E4572E63E5462E36
:107AD00050E5352E0E94763C8033B1F18133B9F107
:107AE000803409F46FC0813409F476C0823409F41B
:107AF00085C0853409F488C0803531F1823521F1A3
:107B0000813511F1853509F485C0863509F48DC0BC
:107B1000843609F496C0843709F403C1853709F423
:107B200072C1863709F466C0809103018F5F80932C
:107B30000301853079F6E0910401F0910501099582
:107B40000E94763C803351F60E94F33CC3CF0E94E2
:107B5000763C803249F78091C00085FFFCCFF092DF
:107B6000C6008091C00085FFFCCF9092C600809136
:107B7000C00085FFFCCF8092C6008091C00085FFC9
:107B8000FCCF7092C6008091C00085FFFCCF609250
:107B9000C6008091C00085FFFCCF5092C600809146
:107BA000C00085FFFCCF4092C6008091C00085FFD9
:107BB000FCCF3092C6008091C00085FFFCCFB09210
:107BC000C60088CF0E94763C863808F4BDCF0E945C
:107BD000763C0E94F33C7ECF0E94763C803809F4CC
:107BE0009CC0813809F40BC1823809F43CC1883942
:107BF00009F48FC080E00E94C73C6CCF84E10E94F2
:107C0000BD3C0E94F33C66CF85E00E94BD3C0E94D3
:107C1000F33C60CF0E94763C809306010E94763C44
:107C2000809307010E94F33C55CF0E94763C80333D
:107C300009F41DC183E00E94BD3C80E00E94C73C66
:107C400049CF0E94763C809309020E94763C809343
:107C5000080280910C028E7F80930C020E94763C79
:107C6000853409F415C18091080290910902892B8D
:107C700089F000E010E00E94763CF801E85FFE4FDA
:107C800080830F5F1F4F80910802909109020817AF
:107C9000190788F30E94763C803209F045CF809125
:107CA0000C0280FF01C16091060170910701660F0F
:107CB000771F7093070160930601A0910802B091AD
:107CC00009021097C9F0E8E0F1E09B01AD014E0F09
:107CD0005F1FF999FECF32BD21BD819180BDFA9A17
:107CE000F99A2F5F3F4FE417F50799F76A0F7B1F4B
:107CF00070930701609306018091C00085FFFCCF5F
:107D0000F092C6008091C00085FFFCCFB092C60003
:107D1000E1CE83E00E94C73CDDCE82E00E94C73CFA
:107D2000D9CE0E94763C809309020E94763C8093D3
:107D300008028091060190910701880F991F909386
:107D40000701809306010E94763C853409F4A6C0A1
:107D500080910C028E7F80930C020E94763C8032D0
:107D600009F0B8CE8091C00085FFFCCFF092C6002C
:107D7000609108027091090261157105B9F140E046
:107D800050E080910C02A82FA170B82FB27011C0E2
:107D9000BB2309F45CC0E0910601F0910701319624
:107DA000F0930701E09306014F5F5F4F46175707B7
:107DB000E8F4AA2369F3F999FECF209106013091E6
:107DC000070132BD21BDF89A90B58091C00085FFB2
:107DD000FCCF9093C6002F5F3F4F30930701209355
:107DE00006014F5F5F4F4617570718F38091C00099
:107DF00085FDE5CE8091C00085FFF8CFE0CE81E023
:107E00000E94C73C67CE0E94763C803209F08CCE3F
:107E10008091C00085FFFCCFF092C6008091C00029
:107E200085FFFCCFE092C6008091C00085FFFCCFAB
:107E3000D092C6008091C00085FFFCCFC092C600E2
:107E40008091C00085FFFCCFB092C60043CEE09188
:107E50000601F091070194918091C00085FFFCCF4D
:107E60009093C6009CCF80E10E94C73C33CE0E9415
:107E7000763C0E94763C182F0E94763C112309F430
:107E800083C0113009F484C08FE00E94C73C22CE29
:107E900080910C02816080930C02E5CE80910C02EF
:107EA000816080930C0259CF809107018823880F4D
:107EB000880B8A2180930B02809106019091070123
:107EC000880F991F90930701809306018091080203
:107ED00080FF09C080910802909109020196909359
:107EE000090280930802F894F999FECF1127E091D6
:107EF0000601F0910701C8E0D1E08091080290915D
:107F00000902103091F40091570001700130D9F34B
:107F100003E000935700E89500915700017001308D
:107F2000D9F301E100935700E89509901990009169
:107F3000570001700130D9F301E000935700E89534
:107F40001395103498F011270091570001700130FB
:107F5000D9F305E000935700E895009157000170B0
:107F60000130D9F301E100935700E895329602976A
:107F700009F0C7CF103011F00296E5CF112480919F
:107F8000C00085FFB9CEBCCE8EE10E94C73CA2CD19
:0E7F900085E90E94C73C9ECDF894FFCF80008B
:00000001FF
